{
  "_format": "hh-sol-artifact-1",
  "contractName": "NFT",
  "sourceName": "contracts/NFT.sol",
  "abi": [
    {
      "inputs": [
        {
          "internalType": "string",
          "name": "name_",
          "type": "string"
        },
        {
          "internalType": "string",
          "name": "symbol_",
          "type": "string"
        },
        {
          "internalType": "address",
          "name": "_bidExecutor",
          "type": "address"
        }
      ],
      "stateMutability": "nonpayable",
      "type": "constructor"
    },
    {
      "anonymous": false,
      "inputs": [
        {
          "indexed": true,
          "internalType": "address",
          "name": "owner",
          "type": "address"
        },
        {
          "indexed": true,
          "internalType": "address",
          "name": "approved",
          "type": "address"
        },
        {
          "indexed": true,
          "internalType": "uint256",
          "name": "tokenId",
          "type": "uint256"
        }
      ],
      "name": "Approval",
      "type": "event"
    },
    {
      "anonymous": false,
      "inputs": [
        {
          "indexed": true,
          "internalType": "address",
          "name": "owner",
          "type": "address"
        },
        {
          "indexed": true,
          "internalType": "address",
          "name": "operator",
          "type": "address"
        },
        {
          "indexed": false,
          "internalType": "bool",
          "name": "approved",
          "type": "bool"
        }
      ],
      "name": "ApprovalForAll",
      "type": "event"
    },
    {
      "anonymous": false,
      "inputs": [
        {
          "indexed": true,
          "internalType": "uint256",
          "name": "tokenID",
          "type": "uint256"
        },
        {
          "indexed": true,
          "internalType": "address",
          "name": "owner",
          "type": "address"
        },
        {
          "indexed": true,
          "internalType": "address",
          "name": "bidder",
          "type": "address"
        },
        {
          "indexed": false,
          "internalType": "uint256",
          "name": "bidValue",
          "type": "uint256"
        }
      ],
      "name": "BidAccepted",
      "type": "event"
    },
    {
      "anonymous": false,
      "inputs": [
        {
          "indexed": true,
          "internalType": "uint256",
          "name": "tokenID",
          "type": "uint256"
        },
        {
          "indexed": true,
          "internalType": "address",
          "name": "bidder",
          "type": "address"
        },
        {
          "indexed": false,
          "internalType": "uint256",
          "name": "bidValue",
          "type": "uint256"
        }
      ],
      "name": "NewBid",
      "type": "event"
    },
    {
      "anonymous": false,
      "inputs": [
        {
          "indexed": false,
          "internalType": "address",
          "name": "account",
          "type": "address"
        }
      ],
      "name": "Paused",
      "type": "event"
    },
    {
      "anonymous": false,
      "inputs": [
        {
          "indexed": true,
          "internalType": "bytes32",
          "name": "role",
          "type": "bytes32"
        },
        {
          "indexed": true,
          "internalType": "bytes32",
          "name": "previousAdminRole",
          "type": "bytes32"
        },
        {
          "indexed": true,
          "internalType": "bytes32",
          "name": "newAdminRole",
          "type": "bytes32"
        }
      ],
      "name": "RoleAdminChanged",
      "type": "event"
    },
    {
      "anonymous": false,
      "inputs": [
        {
          "indexed": true,
          "internalType": "bytes32",
          "name": "role",
          "type": "bytes32"
        },
        {
          "indexed": true,
          "internalType": "address",
          "name": "account",
          "type": "address"
        },
        {
          "indexed": true,
          "internalType": "address",
          "name": "sender",
          "type": "address"
        }
      ],
      "name": "RoleGranted",
      "type": "event"
    },
    {
      "anonymous": false,
      "inputs": [
        {
          "indexed": true,
          "internalType": "bytes32",
          "name": "role",
          "type": "bytes32"
        },
        {
          "indexed": true,
          "internalType": "address",
          "name": "account",
          "type": "address"
        },
        {
          "indexed": true,
          "internalType": "address",
          "name": "sender",
          "type": "address"
        }
      ],
      "name": "RoleRevoked",
      "type": "event"
    },
    {
      "anonymous": false,
      "inputs": [
        {
          "indexed": true,
          "internalType": "address",
          "name": "from",
          "type": "address"
        },
        {
          "indexed": true,
          "internalType": "address",
          "name": "to",
          "type": "address"
        },
        {
          "indexed": true,
          "internalType": "uint256",
          "name": "tokenId",
          "type": "uint256"
        }
      ],
      "name": "Transfer",
      "type": "event"
    },
    {
      "anonymous": false,
      "inputs": [
        {
          "indexed": false,
          "internalType": "address",
          "name": "account",
          "type": "address"
        }
      ],
      "name": "Unpaused",
      "type": "event"
    },
    {
      "inputs": [],
      "name": "DEFAULT_ADMIN_ROLE",
      "outputs": [
        {
          "internalType": "bytes32",
          "name": "",
          "type": "bytes32"
        }
      ],
      "stateMutability": "view",
      "type": "function"
    },
    {
      "inputs": [],
      "name": "MINTER_ROLE",
      "outputs": [
        {
          "internalType": "bytes32",
          "name": "",
          "type": "bytes32"
        }
      ],
      "stateMutability": "view",
      "type": "function"
    },
    {
      "inputs": [],
      "name": "PAUSER_ROLE",
      "outputs": [
        {
          "internalType": "bytes32",
          "name": "",
          "type": "bytes32"
        }
      ],
      "stateMutability": "view",
      "type": "function"
    },
    {
      "inputs": [
        {
          "internalType": "uint256",
          "name": "",
          "type": "uint256"
        }
      ],
      "name": "URI",
      "outputs": [
        {
          "internalType": "string",
          "name": "",
          "type": "string"
        }
      ],
      "stateMutability": "view",
      "type": "function"
    },
    {
      "inputs": [
        {
          "internalType": "uint256",
          "name": "_tokenId",
          "type": "uint256"
        }
      ],
      "name": "acceptBid",
      "outputs": [],
      "stateMutability": "payable",
      "type": "function"
    },
    {
      "inputs": [
        {
          "internalType": "address",
          "name": "to",
          "type": "address"
        },
        {
          "internalType": "uint256",
          "name": "tokenId",
          "type": "uint256"
        }
      ],
      "name": "approve",
      "outputs": [],
      "stateMutability": "nonpayable",
      "type": "function"
    },
    {
      "inputs": [
        {
          "internalType": "address",
          "name": "owner",
          "type": "address"
        }
      ],
      "name": "balanceOf",
      "outputs": [
        {
          "internalType": "uint256",
          "name": "",
          "type": "uint256"
        }
      ],
      "stateMutability": "view",
      "type": "function"
    },
    {
      "inputs": [],
      "name": "bidExecutor",
      "outputs": [
        {
          "internalType": "address",
          "name": "",
          "type": "address"
        }
      ],
      "stateMutability": "view",
      "type": "function"
    },
    {
      "inputs": [
        {
          "internalType": "uint256",
          "name": "",
          "type": "uint256"
        }
      ],
      "name": "bids",
      "outputs": [
        {
          "internalType": "address",
          "name": "bidder",
          "type": "address"
        },
        {
          "internalType": "uint256",
          "name": "bidValue",
          "type": "uint256"
        }
      ],
      "stateMutability": "view",
      "type": "function"
    },
    {
      "inputs": [
        {
          "internalType": "uint256",
          "name": "tokenId",
          "type": "uint256"
        }
      ],
      "name": "burn",
      "outputs": [],
      "stateMutability": "nonpayable",
      "type": "function"
    },
    {
      "inputs": [
        {
          "internalType": "uint256",
          "name": "tokenId",
          "type": "uint256"
        }
      ],
      "name": "getApproved",
      "outputs": [
        {
          "internalType": "address",
          "name": "",
          "type": "address"
        }
      ],
      "stateMutability": "view",
      "type": "function"
    },
    {
      "inputs": [
        {
          "internalType": "uint256",
          "name": "_tokenId",
          "type": "uint256"
        }
      ],
      "name": "getCurrentBidValue",
      "outputs": [
        {
          "internalType": "uint256",
          "name": "",
          "type": "uint256"
        }
      ],
      "stateMutability": "view",
      "type": "function"
    },
    {
      "inputs": [
        {
          "internalType": "uint256",
          "name": "_tokenId",
          "type": "uint256"
        }
      ],
      "name": "getCurrentBidder",
      "outputs": [
        {
          "internalType": "address",
          "name": "",
          "type": "address"
        }
      ],
      "stateMutability": "view",
      "type": "function"
    },
    {
      "inputs": [
        {
          "internalType": "bytes32",
          "name": "role",
          "type": "bytes32"
        }
      ],
      "name": "getRoleAdmin",
      "outputs": [
        {
          "internalType": "bytes32",
          "name": "",
          "type": "bytes32"
        }
      ],
      "stateMutability": "view",
      "type": "function"
    },
    {
      "inputs": [
        {
          "internalType": "bytes32",
          "name": "role",
          "type": "bytes32"
        },
        {
          "internalType": "uint256",
          "name": "index",
          "type": "uint256"
        }
      ],
      "name": "getRoleMember",
      "outputs": [
        {
          "internalType": "address",
          "name": "",
          "type": "address"
        }
      ],
      "stateMutability": "view",
      "type": "function"
    },
    {
      "inputs": [
        {
          "internalType": "bytes32",
          "name": "role",
          "type": "bytes32"
        }
      ],
      "name": "getRoleMemberCount",
      "outputs": [
        {
          "internalType": "uint256",
          "name": "",
          "type": "uint256"
        }
      ],
      "stateMutability": "view",
      "type": "function"
    },
    {
      "inputs": [
        {
          "internalType": "uint256",
          "name": "_tokenId",
          "type": "uint256"
        }
      ],
      "name": "getThresholdStatus",
      "outputs": [
        {
          "internalType": "bool",
          "name": "",
          "type": "bool"
        }
      ],
      "stateMutability": "view",
      "type": "function"
    },
    {
      "inputs": [
        {
          "internalType": "uint256",
          "name": "_tokenId",
          "type": "uint256"
        }
      ],
      "name": "getThresholdValue",
      "outputs": [
        {
          "internalType": "uint256",
          "name": "",
          "type": "uint256"
        }
      ],
      "stateMutability": "view",
      "type": "function"
    },
    {
      "inputs": [
        {
          "internalType": "address",
          "name": "_addr",
          "type": "address"
        }
      ],
      "name": "grantMinterRole",
      "outputs": [],
      "stateMutability": "nonpayable",
      "type": "function"
    },
    {
      "inputs": [
        {
          "internalType": "bytes32",
          "name": "role",
          "type": "bytes32"
        },
        {
          "internalType": "address",
          "name": "account",
          "type": "address"
        }
      ],
      "name": "grantRole",
      "outputs": [],
      "stateMutability": "nonpayable",
      "type": "function"
    },
    {
      "inputs": [
        {
          "internalType": "bytes32",
          "name": "role",
          "type": "bytes32"
        },
        {
          "internalType": "address",
          "name": "account",
          "type": "address"
        }
      ],
      "name": "hasRole",
      "outputs": [
        {
          "internalType": "bool",
          "name": "",
          "type": "bool"
        }
      ],
      "stateMutability": "view",
      "type": "function"
    },
    {
      "inputs": [
        {
          "internalType": "address",
          "name": "owner",
          "type": "address"
        },
        {
          "internalType": "address",
          "name": "operator",
          "type": "address"
        }
      ],
      "name": "isApprovedForAll",
      "outputs": [
        {
          "internalType": "bool",
          "name": "",
          "type": "bool"
        }
      ],
      "stateMutability": "view",
      "type": "function"
    },
    {
      "inputs": [
        {
          "internalType": "uint256",
          "name": "_tokenId",
          "type": "uint256"
        },
        {
          "internalType": "uint256",
          "name": "_bidValue",
          "type": "uint256"
        }
      ],
      "name": "makeBid",
      "outputs": [],
      "stateMutability": "payable",
      "type": "function"
    },
    {
      "inputs": [
        {
          "internalType": "address",
          "name": "_to",
          "type": "address"
        },
        {
          "internalType": "string",
          "name": "_URI",
          "type": "string"
        }
      ],
      "name": "mint",
      "outputs": [],
      "stateMutability": "nonpayable",
      "type": "function"
    },
    {
      "inputs": [
        {
          "internalType": "address",
          "name": "_to",
          "type": "address"
        },
        {
          "internalType": "string",
          "name": "_URI",
          "type": "string"
        },
        {
          "internalType": "uint256",
          "name": "_amount",
          "type": "uint256"
        }
      ],
      "name": "mintBatch",
      "outputs": [],
      "stateMutability": "nonpayable",
      "type": "function"
    },
    {
      "inputs": [],
      "name": "name",
      "outputs": [
        {
          "internalType": "string",
          "name": "",
          "type": "string"
        }
      ],
      "stateMutability": "view",
      "type": "function"
    },
    {
      "inputs": [
        {
          "internalType": "uint256",
          "name": "tokenId",
          "type": "uint256"
        }
      ],
      "name": "ownerOf",
      "outputs": [
        {
          "internalType": "address",
          "name": "",
          "type": "address"
        }
      ],
      "stateMutability": "view",
      "type": "function"
    },
    {
      "inputs": [],
      "name": "pause",
      "outputs": [],
      "stateMutability": "nonpayable",
      "type": "function"
    },
    {
      "inputs": [],
      "name": "paused",
      "outputs": [
        {
          "internalType": "bool",
          "name": "",
          "type": "bool"
        }
      ],
      "stateMutability": "view",
      "type": "function"
    },
    {
      "inputs": [
        {
          "internalType": "bytes32",
          "name": "role",
          "type": "bytes32"
        },
        {
          "internalType": "address",
          "name": "account",
          "type": "address"
        }
      ],
      "name": "renounceRole",
      "outputs": [],
      "stateMutability": "nonpayable",
      "type": "function"
    },
    {
      "inputs": [
        {
          "internalType": "bytes32",
          "name": "role",
          "type": "bytes32"
        },
        {
          "internalType": "address",
          "name": "account",
          "type": "address"
        }
      ],
      "name": "revokeRole",
      "outputs": [],
      "stateMutability": "nonpayable",
      "type": "function"
    },
    {
      "inputs": [
        {
          "internalType": "address",
          "name": "from",
          "type": "address"
        },
        {
          "internalType": "address",
          "name": "to",
          "type": "address"
        },
        {
          "internalType": "uint256",
          "name": "tokenId",
          "type": "uint256"
        }
      ],
      "name": "safeTransferFrom",
      "outputs": [],
      "stateMutability": "nonpayable",
      "type": "function"
    },
    {
      "inputs": [
        {
          "internalType": "address",
          "name": "from",
          "type": "address"
        },
        {
          "internalType": "address",
          "name": "to",
          "type": "address"
        },
        {
          "internalType": "uint256",
          "name": "tokenId",
          "type": "uint256"
        },
        {
          "internalType": "bytes",
          "name": "_data",
          "type": "bytes"
        }
      ],
      "name": "safeTransferFrom",
      "outputs": [],
      "stateMutability": "nonpayable",
      "type": "function"
    },
    {
      "inputs": [
        {
          "internalType": "address",
          "name": "operator",
          "type": "address"
        },
        {
          "internalType": "bool",
          "name": "approved",
          "type": "bool"
        }
      ],
      "name": "setApprovalForAll",
      "outputs": [],
      "stateMutability": "nonpayable",
      "type": "function"
    },
    {
      "inputs": [
        {
          "internalType": "uint256",
          "name": "_tokenId",
          "type": "uint256"
        },
        {
          "internalType": "uint256",
          "name": "_value",
          "type": "uint256"
        },
        {
          "internalType": "bool",
          "name": "_active",
          "type": "bool"
        }
      ],
      "name": "setThreshold",
      "outputs": [],
      "stateMutability": "nonpayable",
      "type": "function"
    },
    {
      "inputs": [
        {
          "internalType": "bytes4",
          "name": "interfaceId",
          "type": "bytes4"
        }
      ],
      "name": "supportsInterface",
      "outputs": [
        {
          "internalType": "bool",
          "name": "",
          "type": "bool"
        }
      ],
      "stateMutability": "view",
      "type": "function"
    },
    {
      "inputs": [],
      "name": "symbol",
      "outputs": [
        {
          "internalType": "string",
          "name": "",
          "type": "string"
        }
      ],
      "stateMutability": "view",
      "type": "function"
    },
    {
      "inputs": [
        {
          "internalType": "uint256",
          "name": "",
          "type": "uint256"
        }
      ],
      "name": "threshold",
      "outputs": [
        {
          "internalType": "uint256",
          "name": "value",
          "type": "uint256"
        },
        {
          "internalType": "bool",
          "name": "active",
          "type": "bool"
        }
      ],
      "stateMutability": "view",
      "type": "function"
    },
    {
      "inputs": [
        {
          "internalType": "uint256",
          "name": "index",
          "type": "uint256"
        }
      ],
      "name": "tokenByIndex",
      "outputs": [
        {
          "internalType": "uint256",
          "name": "",
          "type": "uint256"
        }
      ],
      "stateMutability": "view",
      "type": "function"
    },
    {
      "inputs": [
        {
          "internalType": "address",
          "name": "owner",
          "type": "address"
        },
        {
          "internalType": "uint256",
          "name": "index",
          "type": "uint256"
        }
      ],
      "name": "tokenOfOwnerByIndex",
      "outputs": [
        {
          "internalType": "uint256",
          "name": "",
          "type": "uint256"
        }
      ],
      "stateMutability": "view",
      "type": "function"
    },
    {
      "inputs": [
        {
          "internalType": "uint256",
          "name": "_tokenId",
          "type": "uint256"
        }
      ],
      "name": "tokenURI",
      "outputs": [
        {
          "internalType": "string",
          "name": "",
          "type": "string"
        }
      ],
      "stateMutability": "view",
      "type": "function"
    },
    {
      "inputs": [],
      "name": "totalSupply",
      "outputs": [
        {
          "internalType": "uint256",
          "name": "",
          "type": "uint256"
        }
      ],
      "stateMutability": "view",
      "type": "function"
    },
    {
      "inputs": [],
      "name": "totalTokensMinted",
      "outputs": [
        {
          "internalType": "uint256",
          "name": "",
          "type": "uint256"
        }
      ],
      "stateMutability": "view",
      "type": "function"
    },
    {
      "inputs": [
        {
          "internalType": "address",
          "name": "from",
          "type": "address"
        },
        {
          "internalType": "address",
          "name": "to",
          "type": "address"
        },
        {
          "internalType": "uint256",
          "name": "tokenId",
          "type": "uint256"
        }
      ],
      "name": "transferFrom",
      "outputs": [],
      "stateMutability": "nonpayable",
      "type": "function"
    },
    {
      "inputs": [],
      "name": "unpause",
      "outputs": [],
      "stateMutability": "nonpayable",
      "type": "function"
    }
  ],
  "bytecode": "0x60806040523480156200001157600080fd5b50604051620064ac380380620064ac833981810160405281019062000037919062000575565b82826040518060200160405280600081525082828160029080519060200190620000639291906200043c565b5080600390805190602001906200007c9291906200043c565b5050506000600c60006101000a81548160ff02191690831515021790555080600e9080519060200190620000b29291906200043c565b50620000d76000801b620000cb620001a660201b60201c565b620001ae60201b60201c565b620001187f9f2df0fed2c77648de5860a4cc508cd0818c85b8b8a1ab4ceeef8d981c8956a66200010c620001a660201b60201c565b620001ae60201b60201c565b620001597f65d7a28e3265b37a6474929f336521b332c1681b933f6cb9f3376673440d862a6200014d620001a660201b60201c565b620001ae60201b60201c565b50505080601060006101000a81548173ffffffffffffffffffffffffffffffffffffffff021916908373ffffffffffffffffffffffffffffffffffffffff1602179055505050506200077c565b600033905090565b620001c58282620001f660201b620026ce1760201c565b620001f181600160008581526020019081526020016000206200020c60201b620026dc1790919060201c565b505050565b6200020882826200024460201b60201c565b5050565b60006200023c836000018373ffffffffffffffffffffffffffffffffffffffff1660001b6200033560201b60201c565b905092915050565b620002568282620003af60201b60201c565b6200033157600160008084815260200190815260200160002060000160008373ffffffffffffffffffffffffffffffffffffffff1673ffffffffffffffffffffffffffffffffffffffff16815260200190815260200160002060006101000a81548160ff021916908315150217905550620002d6620001a660201b60201c565b73ffffffffffffffffffffffffffffffffffffffff168173ffffffffffffffffffffffffffffffffffffffff16837f2f8788117e7eff1d82e926ec794901d17c78024a50270940304540a733656f0d60405160405180910390a45b5050565b60006200034983836200041960201b60201c565b620003a4578260000182908060018154018082558091505060019003906000526020600020016000909190919091505582600001805490508360010160008481526020019081526020016000208190555060019050620003a9565b600090505b92915050565b600080600084815260200190815260200160002060000160008373ffffffffffffffffffffffffffffffffffffffff1673ffffffffffffffffffffffffffffffffffffffff16815260200190815260200160002060009054906101000a900460ff16905092915050565b600080836001016000848152602001908152602001600020541415905092915050565b8280546200044a90620006ce565b90600052602060002090601f0160209004810192826200046e5760008555620004ba565b82601f106200048957805160ff1916838001178555620004ba565b82800160010185558215620004ba579182015b82811115620004b95782518255916020019190600101906200049c565b5b509050620004c99190620004cd565b5090565b5b80821115620004e8576000816000905550600101620004ce565b5090565b600062000503620004fd8462000631565b620005fd565b9050828152602081018484840111156200051c57600080fd5b6200052984828562000698565b509392505050565b600081519050620005428162000762565b92915050565b600082601f8301126200055a57600080fd5b81516200056c848260208601620004ec565b91505092915050565b6000806000606084860312156200058b57600080fd5b600084015167ffffffffffffffff811115620005a657600080fd5b620005b48682870162000548565b935050602084015167ffffffffffffffff811115620005d257600080fd5b620005e08682870162000548565b9250506040620005f38682870162000531565b9150509250925092565b6000604051905081810181811067ffffffffffffffff8211171562000627576200062662000733565b5b8060405250919050565b600067ffffffffffffffff8211156200064f576200064e62000733565b5b601f19601f8301169050602081019050919050565b6000620006718262000678565b9050919050565b600073ffffffffffffffffffffffffffffffffffffffff82169050919050565b60005b83811015620006b85780820151818401526020810190506200069b565b83811115620006c8576000848401525b50505050565b60006002820490506001821680620006e757607f821691505b60208210811415620006fe57620006fd62000704565b5b50919050565b7f4e487b7100000000000000000000000000000000000000000000000000000000600052602260045260246000fd5b7f4e487b7100000000000000000000000000000000000000000000000000000000600052604160045260246000fd5b6200076d8162000664565b81146200077957600080fd5b50565b615d20806200078c6000396000f3fe6080604052600436106102725760003560e01c80637d549e991161014f578063b88d4fde116100c1578063d53913931161007a578063d5391393146109c8578063d547741f146109f3578063dbd56ef714610a1c578063e63ab1e914610a59578063e985e9c514610a84578063e9a4d93114610ac157610272565b8063b88d4fde14610894578063bb50aa3a146108bd578063bd6dbecc146108fa578063c87b56dd14610925578063ca15c87314610962578063d0def5211461099f57610272565b8063901e1c0111610113578063901e1c011461077f57806391d14854146107bc57806395d89b41146107f9578063a217fddf14610824578063a22cb4651461084f578063adfcdc111461087857610272565b80637d549e99146106ae578063844f4af6146106d95780638456cb59146107025780638f83c60e146107195780639010d07c1461074257610272565b806331eb7a1a116101e857806342966c68116101ac57806342966c68146105655780634423c5f11461058e5780634f6ccce7146105cc5780635c975abb146106095780636352211e1461063457806370a082311461067157610272565b806331eb7a1a1461049557806336568abe146104d35780633dd1eb61146104fc5780633f4ba83a1461052557806342842e0e1461053c57610272565b806323b872dd1161023a57806323b872dd14610370578063248a9ca3146103995780632b05ff1d146103d65780632b1fd58a146104135780632f2ff15d1461042f5780632f745c591461045857610272565b806301ffc9a71461027757806306fdde03146102b4578063081812fc146102df578063095ea7b31461031c57806318160ddd14610345575b600080fd5b34801561028357600080fd5b5061029e6004803603810190610299919061452a565b610afe565b6040516102ab919061546b565b60405180910390f35b3480156102c057600080fd5b506102c9610b10565b6040516102d691906154a1565b60405180910390f35b3480156102eb57600080fd5b506103066004803603810190610301919061457c565b610ba2565b60405161031391906153db565b60405180910390f35b34801561032857600080fd5b50610343600480360381019061033e919061444d565b610c27565b005b34801561035157600080fd5b5061035a610d3f565b6040516103679190615903565b60405180910390f35b34801561037c57600080fd5b5061039760048036038101906103929190614283565b610d4c565b005b3480156103a557600080fd5b506103c060048036038101906103bb9190614489565b610dac565b6040516103cd9190615486565b60405180910390f35b3480156103e257600080fd5b506103fd60048036038101906103f8919061457c565b610dcb565b60405161040a9190615903565b60405180910390f35b61042d6004803603810190610428919061457c565b610e33565b005b34801561043b57600080fd5b50610456600480360381019061045191906144b2565b6111d5565b005b34801561046457600080fd5b5061047f600480360381019061047a919061444d565b611209565b60405161048c9190615903565b60405180910390f35b3480156104a157600080fd5b506104bc60048036038101906104b7919061457c565b6112ae565b6040516104ca929190615947565b60405180910390f35b3480156104df57600080fd5b506104fa60048036038101906104f591906144b2565b6112df565b005b34801561050857600080fd5b50610523600480360381019061051e919061421e565b611313565b005b34801561053157600080fd5b5061053a611340565b005b34801561054857600080fd5b50610563600480360381019061055e9190614283565b6113ba565b005b34801561057157600080fd5b5061058c6004803603810190610587919061457c565b6113da565b005b34801561059a57600080fd5b506105b560048036038101906105b0919061457c565b611436565b6040516105c3929190615442565b60405180910390f35b3480156105d857600080fd5b506105f360048036038101906105ee919061457c565b61147a565b6040516106009190615903565b60405180910390f35b34801561061557600080fd5b5061061e611511565b60405161062b919061546b565b60405180910390f35b34801561064057600080fd5b5061065b6004803603810190610656919061457c565b611528565b60405161066891906153db565b60405180910390f35b34801561067d57600080fd5b506106986004803603810190610693919061421e565b6115da565b6040516106a59190615903565b60405180910390f35b3480156106ba57600080fd5b506106c3611692565b6040516106d09190615903565b60405180910390f35b3480156106e557600080fd5b5061070060048036038101906106fb91906145e1565b611698565b005b34801561070e57600080fd5b506107176117a4565b005b34801561072557600080fd5b50610740600480360381019061073b91906143e1565b61181e565b005b34801561074e57600080fd5b50610769600480360381019061076491906144ee565b6118d9565b60405161077691906153db565b60405180910390f35b34801561078b57600080fd5b506107a660048036038101906107a1919061457c565b611908565b6040516107b391906154a1565b60405180910390f35b3480156107c857600080fd5b506107e360048036038101906107de91906144b2565b6119a8565b6040516107f0919061546b565b60405180910390f35b34801561080557600080fd5b5061080e611a12565b60405161081b91906154a1565b60405180910390f35b34801561083057600080fd5b50610839611aa4565b6040516108469190615486565b60405180910390f35b34801561085b57600080fd5b506108766004803603810190610871919061434d565b611aab565b005b610892600480360381019061088d91906145a5565b611c2c565b005b3480156108a057600080fd5b506108bb60048036038101906108b691906142d2565b612225565b005b3480156108c957600080fd5b506108e460048036038101906108df919061457c565b612287565b6040516108f191906153db565b60405180910390f35b34801561090657600080fd5b5061090f61230f565b60405161091c91906153db565b60405180910390f35b34801561093157600080fd5b5061094c6004803603810190610947919061457c565b612335565b60405161095991906154a1565b60405180910390f35b34801561096e57600080fd5b5061098960048036038101906109849190614489565b612422565b6040516109969190615903565b60405180910390f35b3480156109ab57600080fd5b506109c660048036038101906109c19190614389565b612446565b005b3480156109d457600080fd5b506109dd6124e1565b6040516109ea9190615486565b60405180910390f35b3480156109ff57600080fd5b50610a1a6004803603810190610a1591906144b2565b612505565b005b348015610a2857600080fd5b50610a436004803603810190610a3e919061457c565b612539565b604051610a509190615903565b60405180910390f35b348015610a6557600080fd5b50610a6e6125a1565b604051610a7b9190615486565b60405180910390f35b348015610a9057600080fd5b50610aab6004803603810190610aa69190614247565b6125c5565b604051610ab8919061546b565b60405180910390f35b348015610acd57600080fd5b50610ae86004803603810190610ae3919061457c565b612659565b604051610af5919061546b565b60405180910390f35b6000610b098261270c565b9050919050565b606060028054610b1f90615b5e565b80601f0160208091040260200160405190810160405280929190818152602001828054610b4b90615b5e565b8015610b985780601f10610b6d57610100808354040283529160200191610b98565b820191906000526020600020905b815481529060010190602001808311610b7b57829003601f168201915b5050505050905090565b6000610bad82612786565b610bec576040517f08c379a0000000000000000000000000000000000000000000000000000000008152600401610be390615763565b60405180910390fd5b6006600083815260200190815260200160002060009054906101000a900473ffffffffffffffffffffffffffffffffffffffff169050919050565b6000610c3282611528565b90508073ffffffffffffffffffffffffffffffffffffffff168373ffffffffffffffffffffffffffffffffffffffff161415610ca3576040517f08c379a0000000000000000000000000000000000000000000000000000000008152600401610c9a906157c3565b60405180910390fd5b8073ffffffffffffffffffffffffffffffffffffffff16610cc26127f2565b73ffffffffffffffffffffffffffffffffffffffff161480610cf15750610cf081610ceb6127f2565b6125c5565b5b610d30576040517f08c379a0000000000000000000000000000000000000000000000000000000008152600401610d27906156c3565b60405180910390fd5b610d3a83836127fa565b505050565b6000600a80549050905090565b610d5d610d576127f2565b826128b3565b610d9c576040517f08c379a0000000000000000000000000000000000000000000000000000000008152600401610d9390615803565b60405180910390fd5b610da7838383612991565b505050565b6000806000838152602001908152602001600020600101549050919050565b6000610dd682612786565b610e15576040517f08c379a0000000000000000000000000000000000000000000000000000000008152600401610e0c906154c3565b60405180910390fd5b60116000838152602001908152602001600020600101549050919050565b6000601160008381526020019081526020016000206040518060400160405290816000820160009054906101000a900473ffffffffffffffffffffffffffffffffffffffff1673ffffffffffffffffffffffffffffffffffffffff1673ffffffffffffffffffffffffffffffffffffffff1681526020016001820154815250509050610ebe82612786565b610efd576040517f08c379a0000000000000000000000000000000000000000000000000000000008152600401610ef4906154c3565b60405180910390fd5b610f0682611528565b73ffffffffffffffffffffffffffffffffffffffff163373ffffffffffffffffffffffffffffffffffffffff1614610f73576040517f08c379a0000000000000000000000000000000000000000000000000000000008152600401610f6a906157e3565b60405180910390fd5b600073ffffffffffffffffffffffffffffffffffffffff16816000015173ffffffffffffffffffffffffffffffffffffffff161415610fe7576040517f08c379a0000000000000000000000000000000000000000000000000000000008152600401610fde90615843565b60405180910390fd5b60003373ffffffffffffffffffffffffffffffffffffffff168260200151604051611011906153c6565b60006040518083038185875af1925050503d806000811461104e576040519150601f19603f3d011682016040523d82523d6000602084013e611053565b606091505b5050905080611097576040517f08c379a000000000000000000000000000000000000000000000000000000000815260040161108e90615723565b60405180910390fd5b6110b63383600001518560405180602001604052806000815250612225565b816000015173ffffffffffffffffffffffffffffffffffffffff163373ffffffffffffffffffffffffffffffffffffffff16847fe6d56779a392535d3a591e92b65ba36f2ecc424bbf5220d0176a7da29385b504856020015160405161111c9190615903565b60405180910390a46000826000019073ffffffffffffffffffffffffffffffffffffffff16908173ffffffffffffffffffffffffffffffffffffffff16815250506000826020018181525050816011600085815260200190815260200160002060008201518160000160006101000a81548173ffffffffffffffffffffffffffffffffffffffff021916908373ffffffffffffffffffffffffffffffffffffffff16021790555060208201518160010155905050505050565b6111df8282612bed565b61120481600160008581526020019081526020016000206126dc90919063ffffffff16565b505050565b6000611214836115da565b8210611255576040517f08c379a000000000000000000000000000000000000000000000000000000000815260040161124c906155a3565b60405180910390fd5b600860008473ffffffffffffffffffffffffffffffffffffffff1673ffffffffffffffffffffffffffffffffffffffff168152602001908152602001600020600083815260200190815260200160002054905092915050565b60126020528060005260406000206000915090508060000154908060010160009054906101000a900460ff16905082565b6112e98282612c53565b61130e8160016000858152602001908152602001600020612cd690919063ffffffff16565b505050565b61133d7f9f2df0fed2c77648de5860a4cc508cd0818c85b8b8a1ab4ceeef8d981c8956a6826111d5565b50565b6113717f65d7a28e3265b37a6474929f336521b332c1681b933f6cb9f3376673440d862a61136c6127f2565b6119a8565b6113b0576040517f08c379a00000000000000000000000000000000000000000000000000000000081526004016113a7906158c3565b60405180910390fd5b6113b8612d06565b565b6113d583838360405180602001604052806000815250612225565b505050565b6113eb6113e56127f2565b826128b3565b61142a576040517f08c379a0000000000000000000000000000000000000000000000000000000008152600401611421906158a3565b60405180910390fd5b61143381612da8565b50565b60116020528060005260406000206000915090508060000160009054906101000a900473ffffffffffffffffffffffffffffffffffffffff16908060010154905082565b6000611484610d3f565b82106114c5576040517f08c379a00000000000000000000000000000000000000000000000000000000081526004016114bc90615823565b60405180910390fd5b600a82815481106114ff577f4e487b7100000000000000000000000000000000000000000000000000000000600052603260045260246000fd5b90600052602060002001549050919050565b6000600c60009054906101000a900460ff16905090565b6000806004600084815260200190815260200160002060009054906101000a900473ffffffffffffffffffffffffffffffffffffffff169050600073ffffffffffffffffffffffffffffffffffffffff168173ffffffffffffffffffffffffffffffffffffffff1614156115d1576040517f08c379a00000000000000000000000000000000000000000000000000000000081526004016115c890615703565b60405180910390fd5b80915050919050565b60008073ffffffffffffffffffffffffffffffffffffffff168273ffffffffffffffffffffffffffffffffffffffff16141561164b576040517f08c379a0000000000000000000000000000000000000000000000000000000008152600401611642906156e3565b60405180910390fd5b600560008373ffffffffffffffffffffffffffffffffffffffff1673ffffffffffffffffffffffffffffffffffffffff168152602001908152602001600020549050919050565b600f5481565b6116a183612786565b6116e0576040517f08c379a00000000000000000000000000000000000000000000000000000000081526004016116d7906154c3565b60405180910390fd5b6116e983611528565b73ffffffffffffffffffffffffffffffffffffffff163373ffffffffffffffffffffffffffffffffffffffff1614611756576040517f08c379a000000000000000000000000000000000000000000000000000000000815260040161174d906157e3565b60405180910390fd5b816012600085815260200190815260200160002060000181905550806012600085815260200190815260200160002060010160006101000a81548160ff021916908315150217905550505050565b6117d57f65d7a28e3265b37a6474929f336521b332c1681b933f6cb9f3376673440d862a6117d06127f2565b6119a8565b611814576040517f08c379a000000000000000000000000000000000000000000000000000000000815260040161180b90615603565b60405180910390fd5b61181c612eb9565b565b61184a33601060009054906101000a900473ffffffffffffffffffffffffffffffffffffffff166125c5565b61187c5761187b601060009054906101000a900473ffffffffffffffffffffffffffffffffffffffff166001611aab565b5b60005b818110156118d257600061189286612f5c565b905080600f8190555084846013600084815260200190815260200160002091906118bd92919061404b565b505080806118ca90615b90565b91505061187f565b5050505050565b60006119008260016000868152602001908152602001600020612ffc90919063ffffffff16565b905092915050565b6013602052806000526040600020600091509050805461192790615b5e565b80601f016020809104026020016040519081016040528092919081815260200182805461195390615b5e565b80156119a05780601f10611975576101008083540402835291602001916119a0565b820191906000526020600020905b81548152906001019060200180831161198357829003601f168201915b505050505081565b600080600084815260200190815260200160002060000160008373ffffffffffffffffffffffffffffffffffffffff1673ffffffffffffffffffffffffffffffffffffffff16815260200190815260200160002060009054906101000a900460ff16905092915050565b606060038054611a2190615b5e565b80601f0160208091040260200160405190810160405280929190818152602001828054611a4d90615b5e565b8015611a9a5780601f10611a6f57610100808354040283529160200191611a9a565b820191906000526020600020905b815481529060010190602001808311611a7d57829003601f168201915b5050505050905090565b6000801b81565b611ab36127f2565b73ffffffffffffffffffffffffffffffffffffffff168273ffffffffffffffffffffffffffffffffffffffff161415611b21576040517f08c379a0000000000000000000000000000000000000000000000000000000008152600401611b1890615643565b60405180910390fd5b8060076000611b2e6127f2565b73ffffffffffffffffffffffffffffffffffffffff1673ffffffffffffffffffffffffffffffffffffffff16815260200190815260200160002060008473ffffffffffffffffffffffffffffffffffffffff1673ffffffffffffffffffffffffffffffffffffffff16815260200190815260200160002060006101000a81548160ff0219169083151502179055508173ffffffffffffffffffffffffffffffffffffffff16611bdb6127f2565b73ffffffffffffffffffffffffffffffffffffffff167f17307eab39ab6107e8899845ad3d59bd9653f200f220920489ca2b5937696c3183604051611c20919061546b565b60405180910390a35050565b6000601160008481526020019081526020016000206040518060400160405290816000820160009054906101000a900473ffffffffffffffffffffffffffffffffffffffff1673ffffffffffffffffffffffffffffffffffffffff1673ffffffffffffffffffffffffffffffffffffffff1681526020016001820154815250509050611cb783612786565b611cf6576040517f08c379a0000000000000000000000000000000000000000000000000000000008152600401611ced906154c3565b60405180910390fd5b348214611d38576040517f08c379a0000000000000000000000000000000000000000000000000000000008152600401611d2f90615863565b60405180910390fd5b80602001518211611d7e576040517f08c379a0000000000000000000000000000000000000000000000000000000008152600401611d7590615503565b60405180910390fd5b600073ffffffffffffffffffffffffffffffffffffffff16816000015173ffffffffffffffffffffffffffffffffffffffff1614611e6c576000816000015173ffffffffffffffffffffffffffffffffffffffff168260200151604051611de4906153c6565b60006040518083038185875af1925050503d8060008114611e21576040519150601f19603f3d011682016040523d82523d6000602084013e611e26565b606091505b5050905080611e6a576040517f08c379a0000000000000000000000000000000000000000000000000000000008152600401611e6190615583565b60405180910390fd5b505b6012600084815260200190815260200160002060010160009054906101000a900460ff168015611eb2575060126000848152602001908152602001600020600001543410155b1561211e576000611ec284611528565b73ffffffffffffffffffffffffffffffffffffffff1634604051611ee5906153c6565b60006040518083038185875af1925050503d8060008114611f22576040519150601f19603f3d011682016040523d82523d6000602084013e611f27565b606091505b5050905080611f6b576040517f08c379a0000000000000000000000000000000000000000000000000000000008152600401611f6290615723565b60405180910390fd5b601060009054906101000a900473ffffffffffffffffffffffffffffffffffffffff1673ffffffffffffffffffffffffffffffffffffffff16635c02f41985336040518363ffffffff1660e01b8152600401611fc892919061591e565b600060405180830381600087803b158015611fe257600080fd5b505af1158015611ff6573d6000803e3d6000fd5b505050506000826000019073ffffffffffffffffffffffffffffffffffffffff16908173ffffffffffffffffffffffffffffffffffffffff16815250506000826020018181525050816011600086815260200190815260200160002060008201518160000160006101000a81548173ffffffffffffffffffffffffffffffffffffffff021916908373ffffffffffffffffffffffffffffffffffffffff160217905550602082015181600101559050503373ffffffffffffffffffffffffffffffffffffffff166120c685611528565b73ffffffffffffffffffffffffffffffffffffffff16857fe6d56779a392535d3a591e92b65ba36f2ecc424bbf5220d0176a7da29385b50485602001516040516121109190615903565b60405180910390a450612220565b33816000019073ffffffffffffffffffffffffffffffffffffffff16908173ffffffffffffffffffffffffffffffffffffffff168152505081816020018181525050806011600085815260200190815260200160002060008201518160000160006101000a81548173ffffffffffffffffffffffffffffffffffffffff021916908373ffffffffffffffffffffffffffffffffffffffff16021790555060208201518160010155905050806000015173ffffffffffffffffffffffffffffffffffffffff16837f558a0d5d5468d74b0db24c74eb348b42271c2ebb4c9e953ced38aaed95fa436183602001516040516122179190615903565b60405180910390a35b505050565b6122366122306127f2565b836128b3565b612275576040517f08c379a000000000000000000000000000000000000000000000000000000000815260040161226c90615803565b60405180910390fd5b61228184848484613016565b50505050565b600061229282612786565b6122d1576040517f08c379a00000000000000000000000000000000000000000000000000000000081526004016122c8906154c3565b60405180910390fd5b6011600083815260200190815260200160002060000160009054906101000a900473ffffffffffffffffffffffffffffffffffffffff169050919050565b601060009054906101000a900473ffffffffffffffffffffffffffffffffffffffff1681565b606061234082612786565b61237f576040517f08c379a0000000000000000000000000000000000000000000000000000000008152600401612376906157a3565b60405180910390fd5b60136000838152602001908152602001600020805461239d90615b5e565b80601f01602080910402602001604051908101604052809291908181526020018280546123c990615b5e565b80156124165780601f106123eb57610100808354040283529160200191612416565b820191906000526020600020905b8154815290600101906020018083116123f957829003601f168201915b50505050509050919050565b600061243f60016000848152602001908152602001600020613072565b9050919050565b61247233601060009054906101000a900473ffffffffffffffffffffffffffffffffffffffff166125c5565b6124a4576124a3601060009054906101000a900473ffffffffffffffffffffffffffffffffffffffff166001611aab565b5b60006124af84612f5c565b905080600f8190555082826013600084815260200190815260200160002091906124da92919061404b565b5050505050565b7f9f2df0fed2c77648de5860a4cc508cd0818c85b8b8a1ab4ceeef8d981c8956a681565b61250f8282613087565b6125348160016000858152602001908152602001600020612cd690919063ffffffff16565b505050565b600061254482612786565b612583576040517f08c379a000000000000000000000000000000000000000000000000000000000815260040161257a906154c3565b60405180910390fd5b60126000838152602001908152602001600020600001549050919050565b7f65d7a28e3265b37a6474929f336521b332c1681b933f6cb9f3376673440d862a81565b6000600760008473ffffffffffffffffffffffffffffffffffffffff1673ffffffffffffffffffffffffffffffffffffffff16815260200190815260200160002060008373ffffffffffffffffffffffffffffffffffffffff1673ffffffffffffffffffffffffffffffffffffffff16815260200190815260200160002060009054906101000a900460ff16905092915050565b600061266482612786565b6126a3576040517f08c379a000000000000000000000000000000000000000000000000000000000815260040161269a906154c3565b60405180910390fd5b6012600083815260200190815260200160002060010160009054906101000a900460ff169050919050565b6126d882826130ed565b5050565b6000612704836000018373ffffffffffffffffffffffffffffffffffffffff1660001b6131cd565b905092915050565b60007f780e9d63000000000000000000000000000000000000000000000000000000007bffffffffffffffffffffffffffffffffffffffffffffffffffffffff1916827bffffffffffffffffffffffffffffffffffffffffffffffffffffffff1916148061277f575061277e8261323d565b5b9050919050565b60008073ffffffffffffffffffffffffffffffffffffffff166004600084815260200190815260200160002060009054906101000a900473ffffffffffffffffffffffffffffffffffffffff1673ffffffffffffffffffffffffffffffffffffffff1614159050919050565b600033905090565b816006600083815260200190815260200160002060006101000a81548173ffffffffffffffffffffffffffffffffffffffff021916908373ffffffffffffffffffffffffffffffffffffffff160217905550808273ffffffffffffffffffffffffffffffffffffffff1661286d83611528565b73ffffffffffffffffffffffffffffffffffffffff167f8c5be1e5ebec7d5bd14f71427d1e84f3dd0314c0f7b2291e5b200ac8c7c3b92560405160405180910390a45050565b60006128be82612786565b6128fd576040517f08c379a00000000000000000000000000000000000000000000000000000000081526004016128f490615663565b60405180910390fd5b600061290883611528565b90508073ffffffffffffffffffffffffffffffffffffffff168473ffffffffffffffffffffffffffffffffffffffff16148061297757508373ffffffffffffffffffffffffffffffffffffffff1661295f84610ba2565b73ffffffffffffffffffffffffffffffffffffffff16145b80612988575061298781856125c5565b5b91505092915050565b8273ffffffffffffffffffffffffffffffffffffffff166129b182611528565b73ffffffffffffffffffffffffffffffffffffffff1614612a07576040517f08c379a00000000000000000000000000000000000000000000000000000000081526004016129fe90615783565b60405180910390fd5b600073ffffffffffffffffffffffffffffffffffffffff168273ffffffffffffffffffffffffffffffffffffffff161415612a77576040517f08c379a0000000000000000000000000000000000000000000000000000000008152600401612a6e90615623565b60405180910390fd5b612a8283838361331f565b612a8d6000826127fa565b6001600560008573ffffffffffffffffffffffffffffffffffffffff1673ffffffffffffffffffffffffffffffffffffffff1681526020019081526020016000206000828254612add9190615a6a565b925050819055506001600560008473ffffffffffffffffffffffffffffffffffffffff1673ffffffffffffffffffffffffffffffffffffffff1681526020019081526020016000206000828254612b349190615a14565b92505081905550816004600083815260200190815260200160002060006101000a81548173ffffffffffffffffffffffffffffffffffffffff021916908373ffffffffffffffffffffffffffffffffffffffff160217905550808273ffffffffffffffffffffffffffffffffffffffff168473ffffffffffffffffffffffffffffffffffffffff167fddf252ad1be2c89b69c2b068fc378daa952ba7f163c4a11628f55a4df523b3ef60405160405180910390a4505050565b612c06612bf983610dac565b612c016127f2565b6119a8565b612c45576040517f08c379a0000000000000000000000000000000000000000000000000000000008152600401612c3c90615543565b60405180910390fd5b612c4f82826130ed565b5050565b612c5b6127f2565b73ffffffffffffffffffffffffffffffffffffffff168173ffffffffffffffffffffffffffffffffffffffff1614612cc8576040517f08c379a0000000000000000000000000000000000000000000000000000000008152600401612cbf906158e3565b60405180910390fd5b612cd2828261332f565b5050565b6000612cfe836000018373ffffffffffffffffffffffffffffffffffffffff1660001b613410565b905092915050565b612d0e611511565b612d4d576040517f08c379a0000000000000000000000000000000000000000000000000000000008152600401612d4490615563565b60405180910390fd5b6000600c60006101000a81548160ff0219169083151502179055507f5db9ee0a495bf2e6ff9c91a7834c1ba4fdd244a5e8aa4e537bd38aeae4b073aa612d916127f2565b604051612d9e91906153db565b60405180910390a1565b6000612db382611528565b9050612dc18160008461331f565b612dcc6000836127fa565b6001600560008373ffffffffffffffffffffffffffffffffffffffff1673ffffffffffffffffffffffffffffffffffffffff1681526020019081526020016000206000828254612e1c9190615a6a565b925050819055506004600083815260200190815260200160002060006101000a81549073ffffffffffffffffffffffffffffffffffffffff021916905581600073ffffffffffffffffffffffffffffffffffffffff168273ffffffffffffffffffffffffffffffffffffffff167fddf252ad1be2c89b69c2b068fc378daa952ba7f163c4a11628f55a4df523b3ef60405160405180910390a45050565b612ec1611511565b15612f01576040517f08c379a0000000000000000000000000000000000000000000000000000000008152600401612ef8906156a3565b60405180910390fd5b6001600c60006101000a81548160ff0219169083151502179055507f62e78cea01bee320cd4e420270b5ea74000d11b0c9f74754ebdbfc544b05a258612f456127f2565b604051612f5291906153db565b60405180910390a1565b6000612f8f7f9f2df0fed2c77648de5860a4cc508cd0818c85b8b8a1ab4ceeef8d981c8956a6612f8a6127f2565b6119a8565b612fce576040517f08c379a0000000000000000000000000000000000000000000000000000000008152600401612fc590615883565b60405180910390fd5b612fd8600d61359a565b612feb82612fe6600d6135b0565b6135be565b612ff5600d6135b0565b9050919050565b600061300b836000018361378c565b60001c905092915050565b613021848484612991565b61302d84848484613826565b61306c576040517f08c379a0000000000000000000000000000000000000000000000000000000008152600401613063906155c3565b60405180910390fd5b50505050565b6000613080826000016139bd565b9050919050565b6130a061309383610dac565b61309b6127f2565b6119a8565b6130df576040517f08c379a00000000000000000000000000000000000000000000000000000000081526004016130d690615683565b60405180910390fd5b6130e9828261332f565b5050565b6130f782826119a8565b6131c957600160008084815260200190815260200160002060000160008373ffffffffffffffffffffffffffffffffffffffff1673ffffffffffffffffffffffffffffffffffffffff16815260200190815260200160002060006101000a81548160ff02191690831515021790555061316e6127f2565b73ffffffffffffffffffffffffffffffffffffffff168173ffffffffffffffffffffffffffffffffffffffff16837f2f8788117e7eff1d82e926ec794901d17c78024a50270940304540a733656f0d60405160405180910390a45b5050565b60006131d983836139ce565b613232578260000182908060018154018082558091505060019003906000526020600020016000909190919091505582600001805490508360010160008481526020019081526020016000208190555060019050613237565b600090505b92915050565b60007f80ac58cd000000000000000000000000000000000000000000000000000000007bffffffffffffffffffffffffffffffffffffffffffffffffffffffff1916827bffffffffffffffffffffffffffffffffffffffffffffffffffffffff1916148061330857507f5b5e139f000000000000000000000000000000000000000000000000000000007bffffffffffffffffffffffffffffffffffffffffffffffffffffffff1916827bffffffffffffffffffffffffffffffffffffffffffffffffffffffff1916145b806133185750613317826139f1565b5b9050919050565b61332a838383613a6b565b505050565b61333982826119a8565b1561340c57600080600084815260200190815260200160002060000160008373ffffffffffffffffffffffffffffffffffffffff1673ffffffffffffffffffffffffffffffffffffffff16815260200190815260200160002060006101000a81548160ff0219169083151502179055506133b16127f2565b73ffffffffffffffffffffffffffffffffffffffff168173ffffffffffffffffffffffffffffffffffffffff16837ff6391f5c32d9c69d2a47ea670b442974b53935d1edc7fd64eb21e047a839171b60405160405180910390a45b5050565b6000808360010160008481526020019081526020016000205490506000811461358e5760006001826134429190615a6a565b905060006001866000018054905061345a9190615a6a565b9050600086600001828154811061349a577f4e487b7100000000000000000000000000000000000000000000000000000000600052603260045260246000fd5b90600052602060002001549050808760000184815481106134e4577f4e487b7100000000000000000000000000000000000000000000000000000000600052603260045260246000fd5b90600052602060002001819055506001836134ff9190615a14565b8760010160008381526020019081526020016000208190555086600001805480613552577f4e487b7100000000000000000000000000000000000000000000000000000000600052603160045260246000fd5b60019003818190600052602060002001600090559055866001016000878152602001908152602001600020600090556001945050505050613594565b60009150505b92915050565b6001816000016000828254019250508190555050565b600081600001549050919050565b600073ffffffffffffffffffffffffffffffffffffffff168273ffffffffffffffffffffffffffffffffffffffff16141561362e576040517f08c379a000000000000000000000000000000000000000000000000000000000815260040161362590615743565b60405180910390fd5b61363781612786565b15613677576040517f08c379a000000000000000000000000000000000000000000000000000000000815260040161366e906155e3565b60405180910390fd5b6136836000838361331f565b6001600560008473ffffffffffffffffffffffffffffffffffffffff1673ffffffffffffffffffffffffffffffffffffffff16815260200190815260200160002060008282546136d39190615a14565b92505081905550816004600083815260200190815260200160002060006101000a81548173ffffffffffffffffffffffffffffffffffffffff021916908373ffffffffffffffffffffffffffffffffffffffff160217905550808273ffffffffffffffffffffffffffffffffffffffff16600073ffffffffffffffffffffffffffffffffffffffff167fddf252ad1be2c89b69c2b068fc378daa952ba7f163c4a11628f55a4df523b3ef60405160405180910390a45050565b6000818360000180549050116137d7576040517f08c379a00000000000000000000000000000000000000000000000000000000081526004016137ce906154e3565b60405180910390fd5b826000018281548110613813577f4e487b7100000000000000000000000000000000000000000000000000000000600052603260045260246000fd5b9060005260206000200154905092915050565b60006138478473ffffffffffffffffffffffffffffffffffffffff16613ac3565b156139b0578373ffffffffffffffffffffffffffffffffffffffff1663150b7a026138706127f2565b8786866040518563ffffffff1660e01b815260040161389294939291906153f6565b602060405180830381600087803b1580156138ac57600080fd5b505af19250505080156138dd57506040513d601f19601f820116820180604052508101906138da9190614553565b60015b613960573d806000811461390d576040519150601f19603f3d011682016040523d82523d6000602084013e613912565b606091505b50600081511415613958576040517f08c379a000000000000000000000000000000000000000000000000000000000815260040161394f906155c3565b60405180910390fd5b805181602001fd5b63150b7a0260e01b7bffffffffffffffffffffffffffffffffffffffffffffffffffffffff1916817bffffffffffffffffffffffffffffffffffffffffffffffffffffffff1916149150506139b5565b600190505b949350505050565b600081600001805490509050919050565b600080836001016000848152602001908152602001600020541415905092915050565b60007f5a05180f000000000000000000000000000000000000000000000000000000007bffffffffffffffffffffffffffffffffffffffffffffffffffffffff1916827bffffffffffffffffffffffffffffffffffffffffffffffffffffffff19161480613a645750613a6382613ad6565b5b9050919050565b613a76838383613b50565b613a7e611511565b15613abe576040517f08c379a0000000000000000000000000000000000000000000000000000000008152600401613ab590615523565b60405180910390fd5b505050565b600080823b905060008111915050919050565b60007f7965db0b000000000000000000000000000000000000000000000000000000007bffffffffffffffffffffffffffffffffffffffffffffffffffffffff1916827bffffffffffffffffffffffffffffffffffffffffffffffffffffffff19161480613b495750613b4882613c64565b5b9050919050565b613b5b838383613cce565b600073ffffffffffffffffffffffffffffffffffffffff168373ffffffffffffffffffffffffffffffffffffffff161415613b9e57613b9981613cd3565b613bdd565b8173ffffffffffffffffffffffffffffffffffffffff168373ffffffffffffffffffffffffffffffffffffffff1614613bdc57613bdb8382613d1c565b5b5b600073ffffffffffffffffffffffffffffffffffffffff168273ffffffffffffffffffffffffffffffffffffffff161415613c2057613c1b81613e89565b613c5f565b8273ffffffffffffffffffffffffffffffffffffffff168273ffffffffffffffffffffffffffffffffffffffff1614613c5e57613c5d8282613fcc565b5b5b505050565b60007f01ffc9a7000000000000000000000000000000000000000000000000000000007bffffffffffffffffffffffffffffffffffffffffffffffffffffffff1916827bffffffffffffffffffffffffffffffffffffffffffffffffffffffff1916149050919050565b505050565b600a80549050600b600083815260200190815260200160002081905550600a81908060018154018082558091505060019003906000526020600020016000909190919091505550565b60006001613d29846115da565b613d339190615a6a565b9050600060096000848152602001908152602001600020549050818114613e18576000600860008673ffffffffffffffffffffffffffffffffffffffff1673ffffffffffffffffffffffffffffffffffffffff168152602001908152602001600020600084815260200190815260200160002054905080600860008773ffffffffffffffffffffffffffffffffffffffff1673ffffffffffffffffffffffffffffffffffffffff168152602001908152602001600020600084815260200190815260200160002081905550816009600083815260200190815260200160002081905550505b6009600084815260200190815260200160002060009055600860008573ffffffffffffffffffffffffffffffffffffffff1673ffffffffffffffffffffffffffffffffffffffff16815260200190815260200160002060008381526020019081526020016000206000905550505050565b60006001600a80549050613e9d9190615a6a565b90506000600b60008481526020019081526020016000205490506000600a8381548110613ef3577f4e487b7100000000000000000000000000000000000000000000000000000000600052603260045260246000fd5b9060005260206000200154905080600a8381548110613f3b577f4e487b7100000000000000000000000000000000000000000000000000000000600052603260045260246000fd5b906000526020600020018190555081600b600083815260200190815260200160002081905550600b600085815260200190815260200160002060009055600a805480613fb0577f4e487b7100000000000000000000000000000000000000000000000000000000600052603160045260246000fd5b6001900381819060005260206000200160009055905550505050565b6000613fd7836115da565b905081600860008573ffffffffffffffffffffffffffffffffffffffff1673ffffffffffffffffffffffffffffffffffffffff168152602001908152602001600020600083815260200190815260200160002081905550806009600084815260200190815260200160002081905550505050565b82805461405790615b5e565b90600052602060002090601f01602090048101928261407957600085556140c0565b82601f1061409257803560ff19168380011785556140c0565b828001600101855582156140c0579182015b828111156140bf5782358255916020019190600101906140a4565b5b5090506140cd91906140d1565b5090565b5b808211156140ea5760008160009055506001016140d2565b5090565b60006141016140fc846159a1565b615970565b90508281526020810184848401111561411957600080fd5b614124848285615b1c565b509392505050565b60008135905061413b81615c77565b92915050565b60008135905061415081615c8e565b92915050565b60008135905061416581615ca5565b92915050565b60008135905061417a81615cbc565b92915050565b60008151905061418f81615cbc565b92915050565b600082601f8301126141a657600080fd5b81356141b68482602086016140ee565b91505092915050565b60008083601f8401126141d157600080fd5b8235905067ffffffffffffffff8111156141ea57600080fd5b60208301915083600182028301111561420257600080fd5b9250929050565b60008135905061421881615cd3565b92915050565b60006020828403121561423057600080fd5b600061423e8482850161412c565b91505092915050565b6000806040838503121561425a57600080fd5b60006142688582860161412c565b92505060206142798582860161412c565b9150509250929050565b60008060006060848603121561429857600080fd5b60006142a68682870161412c565b93505060206142b78682870161412c565b92505060406142c886828701614209565b9150509250925092565b600080600080608085870312156142e857600080fd5b60006142f68782880161412c565b94505060206143078782880161412c565b935050604061431887828801614209565b925050606085013567ffffffffffffffff81111561433557600080fd5b61434187828801614195565b91505092959194509250565b6000806040838503121561436057600080fd5b600061436e8582860161412c565b925050602061437f85828601614141565b9150509250929050565b60008060006040848603121561439e57600080fd5b60006143ac8682870161412c565b935050602084013567ffffffffffffffff8111156143c957600080fd5b6143d5868287016141bf565b92509250509250925092565b600080600080606085870312156143f757600080fd5b60006144058782880161412c565b945050602085013567ffffffffffffffff81111561442257600080fd5b61442e878288016141bf565b9350935050604061444187828801614209565b91505092959194509250565b6000806040838503121561446057600080fd5b600061446e8582860161412c565b925050602061447f85828601614209565b9150509250929050565b60006020828403121561449b57600080fd5b60006144a984828501614156565b91505092915050565b600080604083850312156144c557600080fd5b60006144d385828601614156565b92505060206144e48582860161412c565b9150509250929050565b6000806040838503121561450157600080fd5b600061450f85828601614156565b925050602061452085828601614209565b9150509250929050565b60006020828403121561453c57600080fd5b600061454a8482850161416b565b91505092915050565b60006020828403121561456557600080fd5b600061457384828501614180565b91505092915050565b60006020828403121561458e57600080fd5b600061459c84828501614209565b91505092915050565b600080604083850312156145b857600080fd5b60006145c685828601614209565b92505060206145d785828601614209565b9150509250929050565b6000806000606084860312156145f657600080fd5b600061460486828701614209565b935050602061461586828701614209565b925050604061462686828701614141565b9150509250925092565b61463981615a9e565b82525050565b61464881615ab0565b82525050565b61465781615abc565b82525050565b6000614668826159d1565b61467281856159e7565b9350614682818560208601615b2b565b61468b81615c66565b840191505092915050565b60006146a1826159dc565b6146ab8185615a03565b93506146bb818560208601615b2b565b6146c481615c66565b840191505092915050565b60006146dc602283615a03565b91507f4552433732313a20746f6b656e20686173206e6f74206265656e206d696e746560008301527f642e0000000000000000000000000000000000000000000000000000000000006020830152604082019050919050565b6000614742602283615a03565b91507f456e756d657261626c655365743a20696e646578206f7574206f6620626f756e60008301527f64730000000000000000000000000000000000000000000000000000000000006020830152604082019050919050565b60006147a8603483615a03565b91507f546865206e6577206269642076616c7565206d7573742065786365656420746860008301527f652063757272656e74206269642076616c75652e0000000000000000000000006020830152604082019050919050565b600061480e602b83615a03565b91507f4552433732315061757361626c653a20746f6b656e207472616e73666572207760008301527f68696c65207061757365640000000000000000000000000000000000000000006020830152604082019050919050565b6000614874602f83615a03565b91507f416363657373436f6e74726f6c3a2073656e646572206d75737420626520616e60008301527f2061646d696e20746f206772616e7400000000000000000000000000000000006020830152604082019050919050565b60006148da601483615a03565b91507f5061757361626c653a206e6f74207061757365640000000000000000000000006000830152602082019050919050565b600061491a602583615a03565b91507f4574686572206e6f742073656e7420746f207468652070726576696f7573206260008301527f69646465720000000000000000000000000000000000000000000000000000006020830152604082019050919050565b6000614980602b83615a03565b91507f455243373231456e756d657261626c653a206f776e657220696e646578206f7560008301527f74206f6620626f756e64730000000000000000000000000000000000000000006020830152604082019050919050565b60006149e6603283615a03565b91507f4552433732313a207472616e7366657220746f206e6f6e20455243373231526560008301527f63656976657220696d706c656d656e74657200000000000000000000000000006020830152604082019050919050565b6000614a4c601c83615a03565b91507f4552433732313a20746f6b656e20616c7265616479206d696e746564000000006000830152602082019050919050565b6000614a8c603e83615a03565b91507f4552433732315072657365744d696e7465725061757365724175746f49643a2060008301527f6d75737420686176652070617573657220726f6c6520746f20706175736500006020830152604082019050919050565b6000614af2602483615a03565b91507f4552433732313a207472616e7366657220746f20746865207a65726f2061646460008301527f72657373000000000000000000000000000000000000000000000000000000006020830152604082019050919050565b6000614b58601983615a03565b91507f4552433732313a20617070726f766520746f2063616c6c6572000000000000006000830152602082019050919050565b6000614b98602c83615a03565b91507f4552433732313a206f70657261746f7220717565727920666f72206e6f6e657860008301527f697374656e7420746f6b656e00000000000000000000000000000000000000006020830152604082019050919050565b6000614bfe603083615a03565b91507f416363657373436f6e74726f6c3a2073656e646572206d75737420626520616e60008301527f2061646d696e20746f207265766f6b65000000000000000000000000000000006020830152604082019050919050565b6000614c64601083615a03565b91507f5061757361626c653a20706175736564000000000000000000000000000000006000830152602082019050919050565b6000614ca4603883615a03565b91507f4552433732313a20617070726f76652063616c6c6572206973206e6f74206f7760008301527f6e6572206e6f7220617070726f76656420666f7220616c6c00000000000000006020830152604082019050919050565b6000614d0a602a83615a03565b91507f4552433732313a2062616c616e636520717565727920666f7220746865207a6560008301527f726f2061646472657373000000000000000000000000000000000000000000006020830152604082019050919050565b6000614d70602983615a03565b91507f4552433732313a206f776e657220717565727920666f72206e6f6e657869737460008301527f656e7420746f6b656e00000000000000000000000000000000000000000000006020830152604082019050919050565b6000614dd6602483615a03565b91507f4574686572206e6f742073656e7420746f20746865206f776e6572206f66207460008301527f6f6b656e000000000000000000000000000000000000000000000000000000006020830152604082019050919050565b6000614e3c602083615a03565b91507f4552433732313a206d696e7420746f20746865207a65726f20616464726573736000830152602082019050919050565b6000614e7c602c83615a03565b91507f4552433732313a20617070726f76656420717565727920666f72206e6f6e657860008301527f697374656e7420746f6b656e00000000000000000000000000000000000000006020830152604082019050919050565b6000614ee2602983615a03565b91507f4552433732313a207472616e73666572206f6620746f6b656e2074686174206960008301527f73206e6f74206f776e00000000000000000000000000000000000000000000006020830152604082019050919050565b6000614f48602f83615a03565b91507f4552433732314d657461646174613a2055524920717565727920666f72206e6f60008301527f6e6578697374656e7420746f6b656e00000000000000000000000000000000006020830152604082019050919050565b6000614fae602183615a03565b91507f4552433732313a20617070726f76616c20746f2063757272656e74206f776e6560008301527f72000000000000000000000000000000000000000000000000000000000000006020830152604082019050919050565b6000615014602883615a03565b91507f4f6e6c792074686520746f6b656e206f776e65722063616e206163636570742060008301527f746865206269642e0000000000000000000000000000000000000000000000006020830152604082019050919050565b600061507a6000836159f8565b9150600082019050919050565b6000615094603183615a03565b91507f4552433732313a207472616e736665722063616c6c6572206973206e6f74206f60008301527f776e6572206e6f7220617070726f7665640000000000000000000000000000006020830152604082019050919050565b60006150fa602c83615a03565b91507f455243373231456e756d657261626c653a20676c6f62616c20696e646578206f60008301527f7574206f6620626f756e647300000000000000000000000000000000000000006020830152604082019050919050565b6000615160603983615a03565b91507f506c65617365207761697420666f7220736f6d656f6e6520746f206d616b652060008301527f74686520626964206265666f726520616363657074696e672e000000000000006020830152604082019050919050565b60006151c6602c83615a03565b91507f4d757374206c6f636b207570207468652062696420616d6f756e7420696e207460008301527f686520636f6e74726163742e00000000000000000000000000000000000000006020830152604082019050919050565b600061522c603d83615a03565b91507f4552433732315072657365744d696e7465725061757365724175746f49643a2060008301527f6d7573742068617665206d696e74657220726f6c6520746f206d696e740000006020830152604082019050919050565b6000615292603083615a03565b91507f4552433732314275726e61626c653a2063616c6c6572206973206e6f74206f7760008301527f6e6572206e6f7220617070726f766564000000000000000000000000000000006020830152604082019050919050565b60006152f8604083615a03565b91507f4552433732315072657365744d696e7465725061757365724175746f49643a2060008301527f6d75737420686176652070617573657220726f6c6520746f20756e70617573656020830152604082019050919050565b600061535e602f83615a03565b91507f416363657373436f6e74726f6c3a2063616e206f6e6c792072656e6f756e636560008301527f20726f6c657320666f722073656c6600000000000000000000000000000000006020830152604082019050919050565b6153c081615b12565b82525050565b60006153d18261506d565b9150819050919050565b60006020820190506153f06000830184614630565b92915050565b600060808201905061540b6000830187614630565b6154186020830186614630565b61542560408301856153b7565b8181036060830152615437818461465d565b905095945050505050565b60006040820190506154576000830185614630565b61546460208301846153b7565b9392505050565b6000602082019050615480600083018461463f565b92915050565b600060208201905061549b600083018461464e565b92915050565b600060208201905081810360008301526154bb8184614696565b905092915050565b600060208201905081810360008301526154dc816146cf565b9050919050565b600060208201905081810360008301526154fc81614735565b9050919050565b6000602082019050818103600083015261551c8161479b565b9050919050565b6000602082019050818103600083015261553c81614801565b9050919050565b6000602082019050818103600083015261555c81614867565b9050919050565b6000602082019050818103600083015261557c816148cd565b9050919050565b6000602082019050818103600083015261559c8161490d565b9050919050565b600060208201905081810360008301526155bc81614973565b9050919050565b600060208201905081810360008301526155dc816149d9565b9050919050565b600060208201905081810360008301526155fc81614a3f565b9050919050565b6000602082019050818103600083015261561c81614a7f565b9050919050565b6000602082019050818103600083015261563c81614ae5565b9050919050565b6000602082019050818103600083015261565c81614b4b565b9050919050565b6000602082019050818103600083015261567c81614b8b565b9050919050565b6000602082019050818103600083015261569c81614bf1565b9050919050565b600060208201905081810360008301526156bc81614c57565b9050919050565b600060208201905081810360008301526156dc81614c97565b9050919050565b600060208201905081810360008301526156fc81614cfd565b9050919050565b6000602082019050818103600083015261571c81614d63565b9050919050565b6000602082019050818103600083015261573c81614dc9565b9050919050565b6000602082019050818103600083015261575c81614e2f565b9050919050565b6000602082019050818103600083015261577c81614e6f565b9050919050565b6000602082019050818103600083015261579c81614ed5565b9050919050565b600060208201905081810360008301526157bc81614f3b565b9050919050565b600060208201905081810360008301526157dc81614fa1565b9050919050565b600060208201905081810360008301526157fc81615007565b9050919050565b6000602082019050818103600083015261581c81615087565b9050919050565b6000602082019050818103600083015261583c816150ed565b9050919050565b6000602082019050818103600083015261585c81615153565b9050919050565b6000602082019050818103600083015261587c816151b9565b9050919050565b6000602082019050818103600083015261589c8161521f565b9050919050565b600060208201905081810360008301526158bc81615285565b9050919050565b600060208201905081810360008301526158dc816152eb565b9050919050565b600060208201905081810360008301526158fc81615351565b9050919050565b600060208201905061591860008301846153b7565b92915050565b600060408201905061593360008301856153b7565b6159406020830184614630565b9392505050565b600060408201905061595c60008301856153b7565b615969602083018461463f565b9392505050565b6000604051905081810181811067ffffffffffffffff8211171561599757615996615c37565b5b8060405250919050565b600067ffffffffffffffff8211156159bc576159bb615c37565b5b601f19601f8301169050602081019050919050565b600081519050919050565b600081519050919050565b600082825260208201905092915050565b600081905092915050565b600082825260208201905092915050565b6000615a1f82615b12565b9150615a2a83615b12565b9250827fffffffffffffffffffffffffffffffffffffffffffffffffffffffffffffffff03821115615a5f57615a5e615bd9565b5b828201905092915050565b6000615a7582615b12565b9150615a8083615b12565b925082821015615a9357615a92615bd9565b5b828203905092915050565b6000615aa982615af2565b9050919050565b60008115159050919050565b6000819050919050565b60007fffffffff0000000000000000000000000000000000000000000000000000000082169050919050565b600073ffffffffffffffffffffffffffffffffffffffff82169050919050565b6000819050919050565b82818337600083830152505050565b60005b83811015615b49578082015181840152602081019050615b2e565b83811115615b58576000848401525b50505050565b60006002820490506001821680615b7657607f821691505b60208210811415615b8a57615b89615c08565b5b50919050565b6000615b9b82615b12565b91507fffffffffffffffffffffffffffffffffffffffffffffffffffffffffffffffff821415615bce57615bcd615bd9565b5b600182019050919050565b7f4e487b7100000000000000000000000000000000000000000000000000000000600052601160045260246000fd5b7f4e487b7100000000000000000000000000000000000000000000000000000000600052602260045260246000fd5b7f4e487b7100000000000000000000000000000000000000000000000000000000600052604160045260246000fd5b6000601f19601f8301169050919050565b615c8081615a9e565b8114615c8b57600080fd5b50565b615c9781615ab0565b8114615ca257600080fd5b50565b615cae81615abc565b8114615cb957600080fd5b50565b615cc581615ac6565b8114615cd057600080fd5b50565b615cdc81615b12565b8114615ce757600080fd5b5056fea264697066735822122047e3e1db24b65232ce34a89d90e44d7ef5c217f80be8a5862a55d0a5d93a086464736f6c63430008000033",
  "linkReferences": {},
  "deployedLinkReferences": {}
}