{
  "_format": "hh-sol-artifact-1",
  "contractName": "OpenApeRegistry",
  "sourceName": "contracts/OpenApeRegistry.sol",
  "abi": [
    {
      "anonymous": false,
      "inputs": [
        {
          "indexed": true,
          "internalType": "address",
          "name": "_deployer",
          "type": "address"
        },
        {
          "indexed": false,
          "internalType": "address",
          "name": "_contract",
          "type": "address"
        }
      ],
      "name": "ExternalRegistration",
      "type": "event"
    },
    {
      "anonymous": false,
      "inputs": [
        {
          "indexed": true,
          "internalType": "address",
          "name": "_deployer",
          "type": "address"
        },
        {
          "indexed": false,
          "internalType": "address",
          "name": "_contract",
          "type": "address"
        }
      ],
      "name": "NativeRegistration",
      "type": "event"
    },
    {
      "inputs": [
        {
          "internalType": "bytes",
          "name": "nftBytecode",
          "type": "bytes"
        },
        {
          "internalType": "uint256",
          "name": "salt",
          "type": "uint256"
        }
      ],
      "name": "deployNFT",
      "outputs": [],
      "stateMutability": "nonpayable",
      "type": "function"
    },
    {
      "inputs": [
        {
          "internalType": "address",
          "name": "_deployer",
          "type": "address"
        },
        {
          "internalType": "address",
          "name": "_contract",
          "type": "address"
        }
      ],
      "name": "externalRegister",
      "outputs": [],
      "stateMutability": "nonpayable",
      "type": "function"
    },
    {
      "inputs": [],
      "name": "getAllRegisteredAddresses",
      "outputs": [
        {
          "internalType": "address[]",
          "name": "registeredAddresses",
          "type": "address[]"
        }
      ],
      "stateMutability": "view",
      "type": "function"
    },
    {
      "inputs": [],
      "name": "getNumberOfRegisteredAddresses",
      "outputs": [
        {
          "internalType": "uint256",
          "name": "",
          "type": "uint256"
        }
      ],
      "stateMutability": "view",
      "type": "function"
    },
    {
      "inputs": [
        {
          "internalType": "address",
          "name": "",
          "type": "address"
        }
      ],
      "name": "isRegistered",
      "outputs": [
        {
          "internalType": "bool",
          "name": "",
          "type": "bool"
        }
      ],
      "stateMutability": "view",
      "type": "function"
    }
  ],
  "bytecode": "0x608060405234801561001057600080fd5b506109a1806100206000396000f3fe608060405234801561001057600080fd5b50600436106100575760003560e01c80631988cd6a1461005c5780632f83de151461007857806342ac811014610094578063c3c5a547146100b2578063d479dbfa146100e2575b600080fd5b6100766004803603810190610071919061059a565b610100565b005b610092600480360381019061008d91906105d6565b61021e565b005b61009c610246565b6040516100a99190610734565b60405180910390f35b6100cc60048036038101906100c79190610571565b610253565b6040516100d99190610719565b60405180910390f35b6100ea610273565b6040516100f791906106f7565b60405180910390f35b80600180016000600160000154815260200190815260200160002060006101000a81548173ffffffffffffffffffffffffffffffffffffffff021916908373ffffffffffffffffffffffffffffffffffffffff160217905550600180600001600082825461016e91906107e9565b9250508190555060016000808373ffffffffffffffffffffffffffffffffffffffff1673ffffffffffffffffffffffffffffffffffffffff16815260200190815260200160002060006101000a81548160ff0219169083151502179055508173ffffffffffffffffffffffffffffffffffffffff167f6f1ea03b6e852ad5127033c2c7622d9b7a574f0a2ca8e2ad4060d9d2fb2f4ff08260405161021291906106dc565b60405180910390a25050565b6000818351602085016000f59050803b61023757600080fd5b61024133826103c1565b505050565b6000600160000154905090565b60006020528060005260406000206000915054906101000a900460ff1681565b6060600060016000015467ffffffffffffffff8111156102bc577f4e487b7100000000000000000000000000000000000000000000000000000000600052604160045260246000fd5b6040519080825280602002602001820160405280156102ea5781602001602082028036833780820191505090505b50905060005b6001600001548110156103b95760018001600082815260200190815260200160002060009054906101000a900473ffffffffffffffffffffffffffffffffffffffff1682828151811061036c577f4e487b7100000000000000000000000000000000000000000000000000000000600052603260045260246000fd5b602002602001019073ffffffffffffffffffffffffffffffffffffffff16908173ffffffffffffffffffffffffffffffffffffffff168152505080806103b190610896565b9150506102f0565b508091505090565b80600180016000600160000154815260200190815260200160002060006101000a81548173ffffffffffffffffffffffffffffffffffffffff021916908373ffffffffffffffffffffffffffffffffffffffff160217905550600180600001600082825461042f91906107e9565b9250508190555060016000808373ffffffffffffffffffffffffffffffffffffffff1673ffffffffffffffffffffffffffffffffffffffff16815260200190815260200160002060006101000a81548160ff0219169083151502179055508173ffffffffffffffffffffffffffffffffffffffff167f5a94464878d7551973e76624feeaff5124dc4e12a06fb3bce155e8f19fe66dbc826040516104d391906106dc565b60405180910390a25050565b60006104f26104ed84610780565b61074f565b90508281526020810184848401111561050a57600080fd5b610515848285610887565b509392505050565b60008135905061052c8161093d565b92915050565b600082601f83011261054357600080fd5b81356105538482602086016104df565b91505092915050565b60008135905061056b81610954565b92915050565b60006020828403121561058357600080fd5b60006105918482850161051d565b91505092915050565b600080604083850312156105ad57600080fd5b60006105bb8582860161051d565b92505060206105cc8582860161051d565b9150509250929050565b600080604083850312156105e957600080fd5b600083013567ffffffffffffffff81111561060357600080fd5b61060f85828601610532565b92505060206106208582860161055c565b9150509250929050565b60006106368383610642565b60208301905092915050565b61064b8161083f565b82525050565b61065a8161083f565b82525050565b600061066b826107c0565b61067581856107d8565b9350610680836107b0565b8060005b838110156106b1578151610698888261062a565b97506106a3836107cb565b925050600181019050610684565b5085935050505092915050565b6106c781610851565b82525050565b6106d68161087d565b82525050565b60006020820190506106f16000830184610651565b92915050565b600060208201905081810360008301526107118184610660565b905092915050565b600060208201905061072e60008301846106be565b92915050565b600060208201905061074960008301846106cd565b92915050565b6000604051905081810181811067ffffffffffffffff821117156107765761077561090e565b5b8060405250919050565b600067ffffffffffffffff82111561079b5761079a61090e565b5b601f19601f8301169050602081019050919050565b6000819050602082019050919050565b600081519050919050565b6000602082019050919050565b600082825260208201905092915050565b60006107f48261087d565b91506107ff8361087d565b9250827fffffffffffffffffffffffffffffffffffffffffffffffffffffffffffffffff03821115610834576108336108df565b5b828201905092915050565b600061084a8261085d565b9050919050565b60008115159050919050565b600073ffffffffffffffffffffffffffffffffffffffff82169050919050565b6000819050919050565b82818337600083830152505050565b60006108a18261087d565b91507fffffffffffffffffffffffffffffffffffffffffffffffffffffffffffffffff8214156108d4576108d36108df565b5b600182019050919050565b7f4e487b7100000000000000000000000000000000000000000000000000000000600052601160045260246000fd5b7f4e487b7100000000000000000000000000000000000000000000000000000000600052604160045260246000fd5b6109468161083f565b811461095157600080fd5b50565b61095d8161087d565b811461096857600080fd5b5056fea2646970667358221220d6101c1002ed18e64f86eb82cb38a563809b9902d35f80cd591841451d8aa37064736f6c63430008000033",
  "linkReferences": {},
  "deployedLinkReferences": {}
}