{
  "_format": "hh-sol-artifact-1",
  "contractName": "OpenApeRegistry",
  "sourceName": "contracts/OpenApeRegistry.sol",
  "abi": [
    {
      "anonymous": false,
      "inputs": [
        {
          "indexed": false,
          "internalType": "address",
          "name": "_deployer",
          "type": "address"
        },
        {
          "indexed": false,
          "internalType": "address",
          "name": "_contract",
          "type": "address"
        }
      ],
      "name": "ExternalRegistration",
      "type": "event"
    },
    {
      "anonymous": false,
      "inputs": [
        {
          "indexed": false,
          "internalType": "address",
          "name": "_deployer",
          "type": "address"
        },
        {
          "indexed": false,
          "internalType": "address",
          "name": "_contract",
          "type": "address"
        }
      ],
      "name": "NativeRegistration",
      "type": "event"
    },
    {
      "inputs": [
        {
          "internalType": "bytes",
          "name": "code",
          "type": "bytes"
        },
        {
          "internalType": "uint256",
          "name": "salt",
          "type": "uint256"
        }
      ],
      "name": "deployNFT",
      "outputs": [],
      "stateMutability": "nonpayable",
      "type": "function"
    },
    {
      "inputs": [
        {
          "internalType": "address",
          "name": "_deployer",
          "type": "address"
        },
        {
          "internalType": "address",
          "name": "_contract",
          "type": "address"
        }
      ],
      "name": "externalRegister",
      "outputs": [],
      "stateMutability": "nonpayable",
      "type": "function"
    },
    {
      "inputs": [
        {
          "internalType": "address",
          "name": "",
          "type": "address"
        }
      ],
      "name": "isRegistered",
      "outputs": [
        {
          "internalType": "bool",
          "name": "",
          "type": "bool"
        }
      ],
      "stateMutability": "view",
      "type": "function"
    }
  ],
  "bytecode": "0x608060405234801561001057600080fd5b50610685806100206000396000f3fe608060405234801561001057600080fd5b50600436106100415760003560e01c80631988cd6a146100465780632f83de1514610062578063c3c5a5471461007e575b600080fd5b610060600480360381019061005b91906103c3565b6100ae565b005b61007c600480360381019061007791906103ff565b6101b7565b005b6100986004803603810190610093919061039a565b6101df565b6040516100a5919061049a565b60405180910390f35b80600180016000600160000154815260200190815260200160002060006101000a81548173ffffffffffffffffffffffffffffffffffffffff021916908373ffffffffffffffffffffffffffffffffffffffff160217905550600180600001600082825461011c9190610516565b9250508190555060016000808373ffffffffffffffffffffffffffffffffffffffff1673ffffffffffffffffffffffffffffffffffffffff16815260200190815260200160002060006101000a81548160ff0219169083151502179055507f6f1ea03b6e852ad5127033c2c7622d9b7a574f0a2ca8e2ad4060d9d2fb2f4ff082826040516101ab929190610471565b60405180910390a15050565b6000818351602085016000f59050803b6101d057600080fd5b6101da33826101ff565b505050565b60006020528060005260406000206000915054906101000a900460ff1681565b80600180016000600160000154815260200190815260200160002060006101000a81548173ffffffffffffffffffffffffffffffffffffffff021916908373ffffffffffffffffffffffffffffffffffffffff160217905550600180600001600082825461026d9190610516565b9250508190555060016000808373ffffffffffffffffffffffffffffffffffffffff1673ffffffffffffffffffffffffffffffffffffffff16815260200190815260200160002060006101000a81548160ff0219169083151502179055507f5a94464878d7551973e76624feeaff5124dc4e12a06fb3bce155e8f19fe66dbc82826040516102fc929190610471565b60405180910390a15050565b600061031b610316846104e6565b6104b5565b90508281526020810184848401111561033357600080fd5b61033e8482856105b4565b509392505050565b60008135905061035581610621565b92915050565b600082601f83011261036c57600080fd5b813561037c848260208601610308565b91505092915050565b60008135905061039481610638565b92915050565b6000602082840312156103ac57600080fd5b60006103ba84828501610346565b91505092915050565b600080604083850312156103d657600080fd5b60006103e485828601610346565b92505060206103f585828601610346565b9150509250929050565b6000806040838503121561041257600080fd5b600083013567ffffffffffffffff81111561042c57600080fd5b6104388582860161035b565b925050602061044985828601610385565b9150509250929050565b61045c8161056c565b82525050565b61046b8161057e565b82525050565b60006040820190506104866000830185610453565b6104936020830184610453565b9392505050565b60006020820190506104af6000830184610462565b92915050565b6000604051905081810181811067ffffffffffffffff821117156104dc576104db6105f2565b5b8060405250919050565b600067ffffffffffffffff821115610501576105006105f2565b5b601f19601f8301169050602081019050919050565b6000610521826105aa565b915061052c836105aa565b9250827fffffffffffffffffffffffffffffffffffffffffffffffffffffffffffffffff03821115610561576105606105c3565b5b828201905092915050565b60006105778261058a565b9050919050565b60008115159050919050565b600073ffffffffffffffffffffffffffffffffffffffff82169050919050565b6000819050919050565b82818337600083830152505050565b7f4e487b7100000000000000000000000000000000000000000000000000000000600052601160045260246000fd5b7f4e487b7100000000000000000000000000000000000000000000000000000000600052604160045260246000fd5b61062a8161056c565b811461063557600080fd5b50565b610641816105aa565b811461064c57600080fd5b5056fea264697066735822122074202c0ef8946955d5e216616fa10aa5fa89590db0d4091f2caa3b8e296ef23b64736f6c63430008000033",
  "linkReferences": {},
  "deployedLinkReferences": {}
}